{
  "contractName": "PropertyTransfer",
  "abi": [
    {
      "constant": true,
      "inputs": [],
      "name": "da",
      "outputs": [
        {
          "name": "",
          "type": "address"
        }
      ],
      "payable": false,
      "stateMutability": "view",
      "type": "function"
    },
    {
      "constant": true,
      "inputs": [],
      "name": "totalNoProperty",
      "outputs": [
        {
          "name": "",
          "type": "uint256"
        }
      ],
      "payable": false,
      "stateMutability": "view",
      "type": "function"
    },
    {
      "constant": true,
      "inputs": [
        {
          "name": "",
          "type": "address"
        },
        {
          "name": "",
          "type": "uint256"
        }
      ],
      "name": "propertiesOwner",
      "outputs": [
        {
          "name": "name",
          "type": "string"
        },
        {
          "name": "location",
          "type": "string"
        },
        {
          "name": "isSold",
          "type": "bool"
        }
      ],
      "payable": false,
      "stateMutability": "view",
      "type": "function"
    },
    {
      "inputs": [],
      "payable": false,
      "stateMutability": "nonpayable",
      "type": "constructor"
    },
    {
      "anonymous": false,
      "inputs": [
        {
          "indexed": true,
          "name": "_verifiedOwner",
          "type": "address"
        },
        {
          "indexed": true,
          "name": "_totalNoOfProperty",
          "type": "uint256"
        },
        {
          "indexed": false,
          "name": "_propertyName",
          "type": "string"
        },
        {
          "indexed": false,
          "name": "_propertyLocation",
          "type": "string"
        },
        {
          "indexed": false,
          "name": "_msg",
          "type": "string"
        }
      ],
      "name": "PropertyAlloted",
      "type": "event"
    },
    {
      "anonymous": false,
      "inputs": [
        {
          "indexed": true,
          "name": "from",
          "type": "address"
        },
        {
          "indexed": true,
          "name": "to",
          "type": "address"
        },
        {
          "indexed": false,
          "name": "propertyName",
          "type": "string"
        },
        {
          "indexed": false,
          "name": "propertyLocation",
          "type": "string"
        },
        {
          "indexed": false,
          "name": "_msg",
          "type": "string"
        }
      ],
      "name": "PropertyTransferred",
      "type": "event"
    },
    {
      "constant": true,
      "inputs": [
        {
          "name": "_ownerAddress",
          "type": "address"
        }
      ],
      "name": "getPropertyCountOfAnyAddress",
      "outputs": [
        {
          "name": "",
          "type": "uint256"
        }
      ],
      "payable": false,
      "stateMutability": "view",
      "type": "function"
    },
    {
      "constant": false,
      "inputs": [
        {
          "name": "_verifiedOwner",
          "type": "address"
        },
        {
          "name": "_propertyName",
          "type": "string"
        },
        {
          "name": "_location",
          "type": "string"
        }
      ],
      "name": "allotProperty",
      "outputs": [],
      "payable": false,
      "stateMutability": "nonpayable",
      "type": "function"
    },
    {
      "constant": true,
      "inputs": [
        {
          "name": "_checkOwnerAddress",
          "type": "address"
        },
        {
          "name": "_propertyName",
          "type": "string"
        }
      ],
      "name": "isOwner",
      "outputs": [
        {
          "name": "",
          "type": "uint256"
        }
      ],
      "payable": false,
      "stateMutability": "view",
      "type": "function"
    },
    {
      "constant": false,
      "inputs": [
        {
          "name": "_to",
          "type": "address"
        },
        {
          "name": "_propertyName",
          "type": "string"
        },
        {
          "name": "_propertyLocation",
          "type": "string"
        }
      ],
      "name": "transferProperty",
      "outputs": [
        {
          "name": "",
          "type": "bool"
        },
        {
          "name": "",
          "type": "uint256"
        }
      ],
      "payable": false,
      "stateMutability": "nonpayable",
      "type": "function"
    }
  ],
  "bytecode": "0x608060405234801561001057600080fd5b50336000806101000a81548173ffffffffffffffffffffffffffffffffffffffff021916908373ffffffffffffffffffffffffffffffffffffffff1602179055506113f2806100606000396000f300608060405260043610610083576000357c0100000000000000000000000000000000000000000000000000000000900463ffffffff168063238b912a14610088578063302ff8ac146100df578063371424461461010a5780638f3c7382146101d9578063994febed14610316578063cd3799641461036d578063eed338571461040a575b600080fd5b34801561009457600080fd5b5061009d6104f8565b604051808273ffffffffffffffffffffffffffffffffffffffff1673ffffffffffffffffffffffffffffffffffffffff16815260200191505060405180910390f35b3480156100eb57600080fd5b506100f461051d565b6040518082815260200191505060405180910390f35b34801561011657600080fd5b506101d7600480360381019080803573ffffffffffffffffffffffffffffffffffffffff169060200190929190803590602001908201803590602001908080601f0160208091040260200160405190810160405280939291908181526020018383808284378201915050505050509192919290803590602001908201803590602001908080601f0160208091040260200160405190810160405280939291908181526020018383808284378201915050505050509192919290505050610523565b005b3480156101e557600080fd5b50610224600480360381019080803573ffffffffffffffffffffffffffffffffffffffff16906020019092919080359060200190929190505050610898565b60405180806020018060200184151515158152602001838103835286818151815260200191508051906020019080838360005b83811015610272578082015181840152602081019050610257565b50505050905090810190601f16801561029f5780820380516001836020036101000a031916815260200191505b50838103825285818151815260200191508051906020019080838360005b838110156102d85780820151818401526020810190506102bd565b50505050905090810190601f1680156103055780820380516001836020036101000a031916815260200191505b509550505050505060405180910390f35b34801561032257600080fd5b50610357600480360381019080803573ffffffffffffffffffffffffffffffffffffffff169060200190929190505050610a0c565b6040518082815260200191505060405180910390f35b34801561037957600080fd5b506103f4600480360381019080803573ffffffffffffffffffffffffffffffffffffffff169060200190929190803590602001908201803590602001908080601f0160208091040260200160405190810160405280939291908181526020018383808284378201915050505050509192919290505050610aee565b6040518082815260200191505060405180910390f35b34801561041657600080fd5b506104d7600480360381019080803573ffffffffffffffffffffffffffffffffffffffff169060200190929190803590602001908201803590602001908080601f0160208091040260200160405190810160405280939291908181526020018383808284378201915050505050509192919290803590602001908201803590602001908080601f0160208091040260200160405190810160405280939291908181526020018383808284378201915050505050509192919290505050610ceb565b60405180831515151581526020018281526020019250505060405180910390f35b6000809054906101000a900473ffffffffffffffffffffffffffffffffffffffff1681565b60015481565b6000809054906101000a900473ffffffffffffffffffffffffffffffffffffffff1673ffffffffffffffffffffffffffffffffffffffff163373ffffffffffffffffffffffffffffffffffffffff1614151561057e57600080fd5b81600260008573ffffffffffffffffffffffffffffffffffffffff1673ffffffffffffffffffffffffffffffffffffffff1681526020019081526020016000206000600360008773ffffffffffffffffffffffffffffffffffffffff1673ffffffffffffffffffffffffffffffffffffffff16815260200190815260200160002060008154809291906001019190505581526020019081526020016000206000019080519060200190610632929190611321565b5080600260008573ffffffffffffffffffffffffffffffffffffffff1673ffffffffffffffffffffffffffffffffffffffff1681526020019081526020016000206000600360008773ffffffffffffffffffffffffffffffffffffffff1673ffffffffffffffffffffffffffffffffffffffff168152602001908152602001600020600081548092919060010191905055815260200190815260200160002060010190805190602001906106e7929190611321565b50600160008154809291906001019190505550600360008473ffffffffffffffffffffffffffffffffffffffff1673ffffffffffffffffffffffffffffffffffffffff168152602001908152602001600020548373ffffffffffffffffffffffffffffffffffffffff167f44c13c055a1e9ffd576deac8bb544b823de4b140c51cd5ef43e1c2a47c65d898848460405180806020018060200180602001848103845286818151815260200191508051906020019080838360005b838110156107bc5780820151818401526020810190506107a1565b50505050905090810190601f1680156107e95780820380516001836020036101000a031916815260200191505b50848103835285818151815260200191508051906020019080838360005b83811015610822578082015181840152602081019050610807565b50505050905090810190601f16801561084f5780820380516001836020036101000a031916815260200191505b508481038252601d8152602001807f70726f706572747920616c6c6f746564207375636365737366756c6c790000008152506020019550505050505060405180910390a3505050565b600260205281600052604060002060205280600052604060002060009150915050806000018054600181600116156101000203166002900480601f0160208091040260200160405190810160405280929190818152602001828054600181600116156101000203166002900480156109515780601f1061092657610100808354040283529160200191610951565b820191906000526020600020905b81548152906001019060200180831161093457829003601f168201915b505050505090806001018054600181600116156101000203166002900480601f0160208091040260200160405190810160405280929190818152602001828054600181600116156101000203166002900480156109ef5780601f106109c4576101008083540402835291602001916109ef565b820191906000526020600020905b8154815290600101906020018083116109d257829003601f168201915b5050505050908060020160009054906101000a900460ff16905083565b6000806000809150600090505b600360008573ffffffffffffffffffffffffffffffffffffffff1673ffffffffffffffffffffffffffffffffffffffff16815260200190815260200160002054811015610ae45760011515600260008673ffffffffffffffffffffffffffffffffffffffff1673ffffffffffffffffffffffffffffffffffffffff168152602001908152602001600020600083815260200190815260200160002060020160009054906101000a900460ff161515141515610ad75781806001019250505b8080600101915050610a19565b8192505050919050565b60008060008091505b600360008673ffffffffffffffffffffffffffffffffffffffff1673ffffffffffffffffffffffffffffffffffffffff16815260200190815260200160002054821015610cc75760011515600260008773ffffffffffffffffffffffffffffffffffffffff1673ffffffffffffffffffffffffffffffffffffffff168152602001908152602001600020600084815260200190815260200160002060020160009054906101000a900460ff161515141515610bb157610cc7565b610ca6600260008773ffffffffffffffffffffffffffffffffffffffff1673ffffffffffffffffffffffffffffffffffffffff16815260200190815260200160002060008481526020019081526020016000206000018054600181600116156101000203166002900480601f016020809104026020016040519081016040528092919081815260200182805460018160011615610100020316600290048015610c9b5780601f10610c7057610100808354040283529160200191610c9b565b820191906000526020600020905b815481529060010190602001808311610c7e57829003601f168201915b50505050508561123a565b9050600115158115151415610cba57610cc7565b8180600101925050610af7565b600115158115151415610cdc57819250610ce3565b6201869f92505b505092915050565b600080600080610cfb3387610aee565b91506201869f8214158015610d74575060001515600260003373ffffffffffffffffffffffffffffffffffffffff1673ffffffffffffffffffffffffffffffffffffffff168152602001908152602001600020600084815260200190815260200160002060020160009054906101000a900460ff161515145b156110b0576001600260003373ffffffffffffffffffffffffffffffffffffffff1673ffffffffffffffffffffffffffffffffffffffff168152602001908152602001600020600084815260200190815260200160002060020160006101000a81548160ff0219169083151502179055506040805190810160405280600481526020017f536f6c6400000000000000000000000000000000000000000000000000000000815250600260003373ffffffffffffffffffffffffffffffffffffffff1673ffffffffffffffffffffffffffffffffffffffff16815260200190815260200160002060008481526020019081526020016000206000019080519060200190610e81929190611321565b5085600260008973ffffffffffffffffffffffffffffffffffffffff1673ffffffffffffffffffffffffffffffffffffffff1681526020019081526020016000206000600360008b73ffffffffffffffffffffffffffffffffffffffff1673ffffffffffffffffffffffffffffffffffffffff16815260200190815260200160002060008154809291906001019190505581526020019081526020016000206000019080519060200190610f36929190611321565b50600190508673ffffffffffffffffffffffffffffffffffffffff163373ffffffffffffffffffffffffffffffffffffffff167f65da952838e9aaa13dd0e291c01d262ae1e39b8f2d16d1d5bc367020343e9caa888860405180806020018060200180602001848103845286818151815260200191508051906020019080838360005b83811015610fd4578082015181840152602081019050610fb9565b50505050905090810190601f1680156110015780820380516001836020036101000a031916815260200191505b50848103835285818151815260200191508051906020019080838360005b8381101561103a57808201518184015260208101905061101f565b50505050905090810190601f1680156110675780820380516001836020036101000a031916815260200191505b50848103825260168152602001807f4f776e657220686173206265656e206368616e676564000000000000000000008152506020019550505050505060405180910390a361122f565b600090508673ffffffffffffffffffffffffffffffffffffffff163373ffffffffffffffffffffffffffffffffffffffff167f65da952838e9aaa13dd0e291c01d262ae1e39b8f2d16d1d5bc367020343e9caa888860405180806020018060200180602001848103845286818151815260200191508051906020019080838360005b8381101561114d578082015181840152602081019050611132565b50505050905090810190601f16801561117a5780820380516001836020036101000a031916815260200191505b50848103835285818151815260200191508051906020019080838360005b838110156111b3578082015181840152602081019050611198565b50505050905090810190601f1680156111e05780820380516001836020036101000a031916815260200191505b508481038252601e8152602001807f4f776e657220646f65736e2774206f776e207468652070726f706572747900008152506020019550505050505060405180910390a3808293509350611230565b5b5050935093915050565b6000816040518082805190602001908083835b602083101515611272578051825260208201915060208101905060208303925061124d565b6001836020036101000a038019825116818451168082178552505050505050905001915050604051809103902060001916836040518082805190602001908083835b6020831015156112d957805182526020820191506020810190506020830392506112b4565b6001836020036101000a03801982511681845116808217855250505050505090500191505060405180910390206000191614611316576000611319565b60015b905092915050565b828054600181600116156101000203166002900490600052602060002090601f016020900481019282601f1061136257805160ff1916838001178555611390565b82800160010185558215611390579182015b8281111561138f578251825591602001919060010190611374565b5b50905061139d91906113a1565b5090565b6113c391905b808211156113bf5760008160009055506001016113a7565b5090565b905600a165627a7a7230582035251fb7bc696bf5ce95292df7f188da25332fb316b89d97b3a97d9b5b8294150029",
  "source": "pragma solidity ^0.4.24;\r\n\r\ncontract PropertyTransfer{\r\n\t\r\n\taddress public da;\r\n\r\n\tuint256 public totalNoProperty;\r\n\r\n\tconstructor() public{\r\n    \tda = msg.sender;\r\n\t}\r\n\r\n\tmodifier onlyOwner(){\r\n\t\trequire(msg.sender == da);\r\n\t\t_;\r\n\t}\r\n\r\n\tstruct Property{\r\n\t\tstring name;\r\n\t\tstring location;\r\n\t\tbool isSold;\r\n\t}\r\n\r\n\t//address to property\r\n\tmapping(address => mapping(uint256 => Property)) public propertiesOwner;\r\n\r\n\t//mapping of address to the number of properties owned by the address\r\n\tmapping(address => uint256) individualCountOfPropertyPerOwner;\r\n\r\n\tevent PropertyAlloted(address indexed _verifiedOwner, uint256 indexed _totalNoOfProperty, string _propertyName, string _propertyLocation, string _msg);\r\n\tevent PropertyTransferred(address indexed from, address indexed to, string propertyName, string propertyLocation, string _msg);\r\n\r\n\tfunction getPropertyCountOfAnyAddress(address _ownerAddress) public constant returns (uint256){\r\n\r\n\t\tuint count  = 0;\r\n\t\tfor(uint i = 0; i < individualCountOfPropertyPerOwner[_ownerAddress]; i++){\r\n\t\t\tif(propertiesOwner[_ownerAddress][i].isSold != true){\r\n\t\t\t\tcount++;\r\n\t\t\t}\r\n\t\t}\r\n\t\treturn count;\r\n\t}\r\n\r\n\tfunction allotProperty(address _verifiedOwner, string _propertyName, string _location) public  onlyOwner {\r\n\t\tpropertiesOwner[_verifiedOwner][individualCountOfPropertyPerOwner[_verifiedOwner]++].name = _propertyName;\r\n\t\tpropertiesOwner[_verifiedOwner][individualCountOfPropertyPerOwner[_verifiedOwner]++].location = _location;\r\n\t\ttotalNoProperty++;\r\n\t\temit PropertyAlloted(_verifiedOwner, individualCountOfPropertyPerOwner[_verifiedOwner], _propertyName, _location, \"property alloted successfully\");\r\n\t}\r\n\r\n\tfunction isOwner(address _checkOwnerAddress, string _propertyName) public constant returns(uint) {\r\n\t\tuint i;\r\n\t\tbool flag;\r\n\r\n\t\tfor(i = 0; i < individualCountOfPropertyPerOwner[_checkOwnerAddress]; i++){\r\n\t\t\tif(propertiesOwner[_checkOwnerAddress][i].isSold != true){\r\n\t\t\t\tbreak;\r\n\t\t\t}\r\n\t\t\tflag = stringsEqual(propertiesOwner[_checkOwnerAddress][i].name, _propertyName);\r\n\t\t\tif(flag == true){\r\n\t\t\t\tbreak;\r\n\t\t\t}\r\n\t\t}\r\n\t\tif(flag == true){\r\n\t\t\treturn i;\r\n\t\t} else {\r\n\t\t\treturn 99999;\r\n\t\t}\r\n\t}\r\n\r\n\tfunction stringsEqual(string a1, string a2) private returns (bool){\r\n\t\treturn keccak256(a1) == keccak256(a2) ? true : false;\r\n\t}\r\n\r\n\tfunction transferProperty(address _to, string _propertyName, string _propertyLocation) public returns(bool, uint){\r\n\t\tuint256 checkOwner = isOwner(msg.sender, _propertyName);\r\n\t\tbool flag;\r\n\t\tif(checkOwner != 99999 && propertiesOwner[msg.sender][checkOwner].isSold == false){\r\n\r\n\t\t\tpropertiesOwner[msg.sender][checkOwner].isSold = true;\r\n\t\t\tpropertiesOwner[msg.sender][checkOwner].name = \"Sold\";\r\n\r\n\t\t\tpropertiesOwner[_to][individualCountOfPropertyPerOwner[_to]++].name = _propertyName;\r\n\r\n\t\t\tflag = true;\r\n\r\n\t\t\temit PropertyTransferred(msg.sender, _to, _propertyName, _propertyLocation, \"Owner has been changed\");\r\n\r\n\t\t} else {\r\n\r\n\t\t\tflag = false;\r\n\t\t\temit PropertyTransferred(msg.sender, _to, _propertyName, _propertyLocation, \"Owner doesn't own the property\");\r\n\t\t\treturn(flag, checkOwner);\r\n\t\t}\r\n\t}\r\n}\r\n",
  "sourcePath": "C:\\Users\\Admn\\Desktop\\land\\contracts\\Propertyf.sol",
  "compiler": {
    "name": "solc",
    "version": "0.4.24+commit.e67f0147.Emscripten.clang"
  },
  "schemaVersion": "2.0.1",
  "updatedAt": "2018-08-09T21:54:41.504Z"
}